:020000040800F2
:10000000A8300020990100089D0B00088B0A000809
:100010008F0A000865090008B716000800000000F4
:1000200000000000000000000000000001010008C6
:10003000690900080000000045010008C11200081D
:10004000B3010008B3010008B3010008B3010008C0
:10005000B3010008B3010008B3010008B3010008B0
:10006000B3010008B3010008B3010008B3010008A0
:10007000B3010008B3010008B3010008B301000890
:10008000B3010008B3010008B3010008B301000880
:10009000B3010008B3010008B3010008B301000870
:1000A000B3010008B3010008B3010008B301000860
:1000B000B3010008B3010008B3010008B301000850
:1000C000B3010008B3010008B3010008B301000840
:1000D000B3010008B1130008B3010008B301000820
:1000E000B3010008B3010008B3010008DFF80CD029
:1000F00000F0FAFB00480047F9220008A830002071
:10010000224B19680868B0E8F00F80F30988BFF344
:100110006F8F4FF0000080F311884EF00D0E704786
:100120000000000006480068006880F3088862B696
:1001300061B6BFF34F8FBFF36F8F00DF00BF00BF0B
:1001400008ED00E0EFF30980BFF36F8F0F4B1A68E3
:1001500020E9F00F106008B54FF0500080F31188CF
:10016000BFF34F8FBFF36F8F03F0B6FA4FF000006D
:1001700080F31188BDE8084019680868B0E8F00FFE
:1001800080F30988BFF36F8F704700BF5C000020C9
:10019000EFF3058070470000064880470648004797
:1001A000FEE7FEE7FEE7FEE7FEE7FEE7FEE7FEE727
:1001B000FEE7FEE751130008ED00000838B5D0E96E
:1001C0000221491E01EB410102EBC1014268C1EB72
:1001D000011102EB81010268C1EB011102EB810206
:1001E000D0E9043101EB410103EB81013023A1F59A
:1001F000527191FBF3F4174D6C4302EBC41291FB67
:10020000F3F403FB141100921A2902DB124B1A4477
:1002100000920C2291FBF2F3104C6343009C04EB20
:10022000C313009391FBF2F302FB13110C4A08E095
:10023000491E40F2A324535C6343009C04EBC313A8
:1002400000930029F4DC0146684600F079F9009833
:1002500038BD00003F0C0F008051010067C2030051
:10026000404B000840EA01039B0703D009E008C99E
:10027000121F08C0042AFAD203E011F8013B00F86B
:10028000013B521EF9D270472DE9FE4F804681EAAC
:100290000300C00F0C46009021F0004123F0004500
:1002A000B8EB0200A94105D24046214690461C46C3
:1002B0000B46024623F00040104347D0270DC7F3FA
:1002C0000A00C3F30A510290401A019040286BDAE9
:1002D000C3F3130040F4801B0098924620B1002322
:1002E000D2EB030A63EB0B0B01985946C0F14002B5
:1002F000504600F0FEF806460D4650465946019A13
:1003000000F006F910EB08006141002487EA115261
:1003100084EAE7731A4340D0009A62B3019A012A33
:100320004FEA075215DC001B61EB02014FF000425F
:1003300002EA0752CDE90042001C41F58011324625
:100340002B4600F089F903B0BDE8F08F4046214606
:10035000F9E7001B61EB0201001C41F58013001856
:100360005B412018A2F5001747EB030140EAD57066
:10037000B6196D4111E06D084FEA360645EAC075C1
:100380004FEA0752001B61EB0201001C41F580118E
:1003900049084FEA30000019514132462B4603B05C
:1003A000BDE8F04F00F049B9009801224000002359
:1003B000D0EB020263EBE073009821464FEAE07451
:1003C000B8EB000061EB0401E9E783F000435BE771
:1003D00081F0004158E700F0004230F000400AD0C0
:1003E000C10D01F56071C0F3160042EA0151C20867
:1003F00040071143704700200146704730B5041E86
:1004000071F1000404DB4FF00044404264EB010151
:10041000141E73F1000405DB1C464FF000435242EA
:1004200063EB0403994208BF904230BD01F00043E2
:1004300030B421F0004150EA010206D00A0DA2F5C5
:100440006072C1F31301002A02DC30BC0020704747
:10045000440F44EAC104C100E01830BC00EBC250B4
:1004600000F0B4B830B50B4601460020202201242C
:1004700009E021FA02F59D4205D303FA02F5491B72
:1004800004FA02F52844151EA2F10102F1DC30BD88
:100490002DE9F05F0546002092469B4688460646B9
:1004A000814640241BE0284641464746224600F04C
:1004B0002DFA53465A46C01A914110D31146184698
:1004C000224600F016F82D1A67EB01084F46224627
:1004D0000120002100F00DF817EB00094E41201E0D
:1004E000A4F10104DFDC484631462A464346BDE814
:1004F000F09F202A04DB203A00FA02F10020704726
:100500009140C2F1200320FA03F319439040704751
:10051000202A06DBCB17203A41FA02F043EAE073C7
:1005200006E041FA02F3D040C2F1200291400843B4
:1005300019467047014900F003B80000782C0020EC
:1005400010B500683C22B0FBF2F302FB1303B0FBD2
:10055000F2F00B60B0FBF2F302FB1303B0FBF2F01E
:1005600018224B60B0FBF2F302FB1303B0FBF2F076
:10057000021D8B600723B2FBF3F403FB14228000FF
:1005800040F2B55300F66C308A61B0FBF3F2B0FB79
:10059000F3F403FB1400443280084A61C8613B282D
:1005A00002D3920700D0401C0022074C13460A6178
:1005B000E25C824203D8801A5B1C0B61F8E7401CA6
:1005C000C860084610BD00004C4B00080029A8BFB9
:1005D0007047401C490008BF20F00100704710B46C
:1005E000B0FA80FC00FA0CF050EA010404BF10BC21
:1005F000704749B1CCF1200421FA04F411FA0CF14E
:1006000018BF012121430843A3EB0C01CB1D4FEA86
:1006100000614FEA102042BF002010BC704700EB81
:10062000C35010440029A4BF10BC7047401C4900AF
:1006300008BF20F0010010BC704710B5141E73F104
:10064000000408DA401C41F1000192185B411A4392
:1006500001D120F0010010BD2DE9F04D92469B46DE
:1006600011B1B1FA81F202E0B0FA80F22032904684
:10067000FFF73FFF04460F4640EA0A0041EA0B013C
:1006800053465A46084313D0114653EA010019D085
:10069000C8F14002504600F039F905460E46504672
:1006A00059464246FFF725FF084305D0012004E0E4
:1006B00020463946BDE8F08D0020054346EAE07645
:1006C0002C4337430A986305E40AA0EB0800002294
:1006D000FD0A44EA47540A3002D500200146E9E702
:1006E000010510196941DDE9084500196941BDE8B6
:1006F000F04DA2E72DE9FE4F81EA030404F0004427
:1007000021F0004100944FF0000B23F0004350EA29
:1007100001045ED052EA03045BD0C3F30A54C1F370
:100720000A552C44A4F2F3340194A0FB0254C1F303
:10073000130141F48011C3F3130343F4801301FB4D
:10074000024400FB034E840A970A44EA815447EAB4
:100750008357A4FB076802958D0A05FB07854FEABE
:10076000932C04FB0C542705029D4FEA065847EAD8
:100770001637B5EB08056EEB070C870E920E47EAAD
:10078000811742EA8312A7FB0201B6EB0B0164EB6F
:1007900000042B0D43EA0C335E1844EB1C50DA4680
:1007A0005146E7FB0201C5F313044FEA0B3343EA5A
:1007B00014534FEA0432019C43EA0603A4F10C04EB
:1007C0000294009CCDE900B4FFF746FF03B0BDE8FA
:1007D000F08F00200146F9E72DE9F04D81EA03048E
:1007E00004F0004B21F0004514464FF0000A23F0BE
:1007F000004150EA050220D054EA01021DD0C5F3A1
:100800000A570246C5F31303C1F31300C1F30A5696
:1008100040F4801543F48013A7EB0608101BD6465E
:1008200008F2FD3873EB050002D308F1010801E07E
:1008300092185B41B8F1000F03DA00200146BDE8D1
:10084000F08D00204FF48011064684460EE0171B01
:1008500073EB050705D3121B63EB050306434CEA54
:10086000010C49084FEA300092185B4150EA010739
:10087000EDD152EA030012D082EA040083EA0501B6
:10088000084305D0101BAB4106D20122002306E02D
:1008900000224FF0004302E06FF0010253101AEB08
:1008A00006004CEB085110EB0A0041EB0B01BDE8D0
:1008B000F04DFFF7C2BEC1F30A52C1F3130140F27B
:1008C000FF3341F480119A4202DA0020014670475A
:1008D00040F233439A42A2F2334202DC524200F029
:1008E00015B8FFF706BE0000064C074D06E0E068AD
:1008F00040F0010394E8070098471034AC42F6D367
:10090000FFF7F8FB584B0008784B0008202A04DB5F
:10091000203A21FA02F00021704721FA02F3D04078
:10092000C2F12002914008431946704708B50146BC
:100930000020009003480090009808440090009820
:10094000008808BD006C004008B500220092044AEF
:100950000092009A02440092009A116008BD0000C3
:10096000006C004000BFFEE770472DE9F0410246F1
:1009700000250026002000230024002791F803C052
:100980000CF00F0591F803C00CF0100CBCF1000F37
:1009900003D091F802C04CEA050591F800C0BCF103
:1009A000000F31D0146800202BE04FF0010C0CFA3E
:1009B00000F3B1F800C00CEA03069E4220D1830088
:1009C0004FF00F0C0CFA03F7BC4305FA03FC4CEA9A
:1009D000040491F803C0BCF1280F06D14FF0010CBC
:1009E0000CFA00FCC2F814C00AE091F803C0BCF194
:1009F000480F05D14FF0010C0CFA00FCC2F810C0F2
:100A0000401C0828D1D31460B1F800C0BCF1FF0F1E
:100A100034DD546800202EE000F1080C4FF001088E
:100A200008FA0CF3B1F800C00CEA03069E4221D18B
:100A300083004FF00F0C0CFA03F7BC4305FA03FCDC
:100A40004CEA040491F803C0BCF1280F05D100F171
:100A5000080C08FA0CF8C2F8148091F803C0BCF135
:100A6000480F07D100F1080C4FF0010808FA0CF804
:100A7000C2F81080401C0828CED35460BDE8F08135
:100A80000AB1016100E04161704700BFFEE700BFAD
:100A9000FEE710B50121080700F062FA0121C8063F
:100AA00000F05EFA012000F055FA0420FFF73EFF47
:100AB0004AF2A551884221D0012000F0F9FA00BF86
:100AC000412000F0D7FA0028FAD04FF4807000F0EF
:100AD0000FFB012000F006FB00F058FB00F04CFB80
:100AE00047F6FF7000F038FB00F046FB00F030F8EE
:100AF0004AF2A5510420FFF727FF03E000F046FB70
:100B000000F03AFB10BD000010B58CB000F00CFBFB
:100B100000F5E1400B900BA8FFF70CFD04462C22DA
:100B200021466846FFF79EFB059800F26C70074966
:100B300008800498401C4880039888800298C880E8
:100B400001980881009848810CB010BD4A0000202F
:100B500010B58CB010480088A0F26C7006900E485A
:100B60004088401E05900C48808804900A48C08840
:100B7000039009480089029007484089019001A824
:100B8000FFF71CFBA0F5E144204600F0D7FA00F087
:100B9000F3FA0CB010BD00004A00002070470000BE
:100BA00070B5002100230F22C47804B3154C2468CB
:100BB00004F4E064C4F5E064210AC1F10403CA400E
:100BC000447804FA03F184781440214309010E4C5F
:100BD0000678A155047804F01F050124AC4005787F
:100BE0006D11AD0005F1E025C5F8004109E004787C
:100BF00004F01F050124AC40044D0678761145F839
:100C0000264070BD0CED00E000E400E080E100E073
:100C100002490143024A1160704700000000FA05D2
:100C20000CED00E070B500240EE00021204600F03D
:100C3000F0F8002504E0002000F07CF9681CC5B243
:100C4000802DF8DB601CC4B2082CEEDB70BD000008
:100C500008B50121082000F093F914208DF8030055
:100C600003208DF802004FF48070ADF80000694653
:100C70000A48FFF77AFE4FF40070ADF800006946AD
:100C80000648FFF772FE012211020448FFF7F8FE42
:100C9000012251020148FFF7F3FE08BD000C01409C
:100CA00070B50546002415E08020204100EA0502C9
:100CB0004FF400710E48FFF7E3FE012211020C48C9
:100CC000FFF7DEFE00224FF480710948FFF7D8FEDF
:100CD000601CC4B2082CE7DB012211020448FFF7B4
:100CE000CFFE00224FF480710148FFF7C9FE70BDAE
:100CF000000C014010B5012251020A48FFF7C0FE66
:100D0000012211020748FFF7BBFE00224FF40071D9
:100D10000448FFF7B5FE00224FF480710148FFF749
:100D2000AFFE10BD000C014010B500224FF4007161
:100D30000648FFF7A5FE012211020448FFF7A0FEB6
:100D4000012251020148FFF79BFE10BD000C01403B
:100D500070B5002406E0002500E06D1CB5F57A7F33
:100D6000FBD3641CB4F57A7FF5D3FFF771FFAE2097
:100D700000F0D0F8D52000F0CDF8802000F0CAF8BF
:100D8000A82000F0C7F83F2000F0C4F8D32000F0FE
:100D9000C1F8002000F0BEF8402000F0BBF8A12010
:100DA00000F0B8F8C82000F0B5F8DA2000F0B2F88A
:100DB000122000F0AFF8812000F0ACF8CF2000F056
:100DC000A9F8D92000F0A6F8F12000F0A3F8DB2064
:100DD00000F0A0F8302000F09DF8A42000F09AF870
:100DE000A62000F097F88D2000F094F8142000F071
:100DF00091F8AF2000F08EF8FFF714FF70BD10B52A
:100E00000246012000E050430B1EA1F10101FAD17E
:100E100010BD70B505460C4645F0B00000F07AF8FC
:100E2000102141EA141000F075F804F00F0000F0F2
:100E300071F870BD2DE9F04105460E461746721E49
:100E4000D206110E6A1E5206100EFFF7E2FF0024B2
:100E500009E0A7F12001134A02EB0111085D00F03F
:100E600069F8601CC4B2082CF3DB721ED206110EA6
:100E70006A1E012303EB4202D0B2FFF7CAFF00242F
:100E80000BE0A7F12001074A02EB011204F108016F
:100E9000505C00F04FF8601CC4B2082CF1DBBDE8D8
:100EA000F0810000504500082DE9F04780460E46CD
:100EB00017461D46002415E0281B411E0A20FFF797
:100EC0009EFFB7FBF0F00A21B0FBF1F201FB12002C
:100ED00000F130093019C1B24A464046FFF7AAFF77
:100EE000601CC4B2AC42E7DBBDE8F0872DE9F041FD
:100EF00007460E461546002407E02A5D3019C1B2A8
:100F00003846FFF797FF601CC4B2285D0028F4D173
:100F1000BDE8F08110B50446FFF7ECFE7820FFF73E
:100F2000BFFE0020FFF7BCFE2046FFF7B9FEFFF72B
:100F3000FBFE10BD10B50446FFF7DCFE7820FFF77E
:100F4000AFFE4020FFF7ACFE2046FFF7A9FEFFF7FB
:100F5000EBFE10BD014908627047000000000E4220
:100F600029B1064AD2690243044BDA6104E0034A1C
:100F7000D2698243014BDA617047000000100240E1
:100F800029B1064A92690243044B9A6104E0034A7C
:100F900092698243014B9A61704700000010024041
:100FA00030B500210022002400232D4D6D6805F08E
:100FB0000C0121B1042905D0082923D105E0294DD0
:100FC000056022E0274D05601FE0254D6D6805F4A2
:100FD0007012234D6D6805F48034022505EB9242B2
:100FE0001CB9214D554305600BE01D4D6D6805F49E
:100FF00000351DB11C4D5543056002E0194D5543A8
:10100000056002E0174D056000BF00BF144D6D681C
:1010100005F0F0010909154D6B5C0568DD40456080
:101020000F4D6D6805F4E061090A104D6B5C456871
:10103000DD4085600A4D6D6805F46051C90A0B4DAD
:101040006B5C4568DD40C560054D6D6805F4404149
:10105000890B074D6B5CC568B5FBF3F5056130BDC9
:101060000010024000127A0000093D00200000201C
:101070003000002010B501460022002300204A1154
:10108000012A02D1094C236806E0022A02D1074C4A
:10109000236A01E0054C636A01F01F0201249440B9
:1010A0001C400CB1012000E0002010BD00100240E7
:1010B00000210B4A11700A4A203A82F820100128B8
:1010C00002D0042808D103E00121054A117004E090
:1010D0000521034A117000E000BF00BF7047000007
:1010E0002010024001490860704700003C04424261
:1010F0000249096A0143014A116270470010024027
:101100000348008840F01000014908807047000043
:1011100004280040034800884FF6EF710840014959
:101120000880704704280040002103480188001F00
:10113000008841EA004070471C28004000B5024684
:10114000FFF7DEFF100C03490880091D0A80FFF736
:10115000E1FF00BD1828004000B50246FFF7D0FFB0
:10116000C2F3034003490880091D0A80FFF7D2FF3C
:1011700000BD00000828004000BF0348008800F0C0
:1011800020000028F9D07047042800400748008854
:101190004FF6F77108400549088000BF03480088F2
:1011A00000F008000028F9D0704700000428004033
:1011B00010B500F001F810BD0CB5002001900090B2
:1011C0003348006840F480303149086000BF30483F
:1011D000006800F4003000900198401C01900098D5
:1011E00018B90198B0F5A06FF1D12948006800F452
:1011F000003010B10120009001E000200090009824
:10120000012843D12348006840F0100021490860BC
:101210000846006820F0030008600846006840F0B7
:10122000020008601A48406819494860084640684A
:1012300048600846406840F480604860084640685E
:1012400020F47C1048600846406840F4E81048608C
:101250000846006840F08070086000BF0C480068D5
:1012600000F000700028F9D00948406820F0030021
:10127000074948600846406840F00200486000BFE7
:101280000348406800F00C000828F9D10CBD0000AC
:101290000010024000200240042808D14FF0E02155
:1012A000096941F004014FF0E022116107E04FF0BD
:1012B000E021096921F004014FF0E022116170473B
:1012C00010B500BF502080F31188BFF34F8FBFF3DC
:1012D0006F8F00BF02F0F6FD18B14FF08050044947
:1012E000086000BF002080F3118800BF10BD00001F
:1012F00004ED00E070B505460420FFF7CDFF10486F
:1013000000681049B0FBF1F00F4908700C48006804
:101310000C49B0FBF1F44FF47A70444301200B49BF
:1013200008804FF0E020006940F002004FF0E0211B
:10133000086108464461006940F00100086170BD21
:101340003400002040420F005600002058000020CA
:1013500010B51348006840F00100114908600846C4
:101360004068104908400E494860084600680E4928
:1013700008400B4908600846006820F48020086097
:101380000846406820F4FE0048604FF41F00886063
:10139000FFF70EFF4FF000600449086010BD000029
:1013A000001002400000FFF8FFFFF6FE08ED00E02D
:1013B00010B540F225511D4800F0B8F810B31B4895
:1013C00000F070F9C4B21A48008800F40040C8B9AF
:1013D0001748008800F4804060B10A2C03D0002038
:1013E0001349088020E01248008840F4004010496A
:1013F000088019E00D2C06D10D48008840F480408B
:101400000B49088010E00A480088C0F30D00094924
:101410000C5407480088401C05490880084600888D
:10142000C72801DD0020088010BD00000038014001
:101430005A000020CC00002010B586B004460121DF
:101440000420FFF79DFD01218803FFF799FD4FF46C
:101450000070ADF8140003208DF8160018208DF8E8
:10146000170005A91E48FFF780FA4FF48060ADF819
:10147000140004208DF8170005A91948FFF775FA24
:1014800001940020ADF80800ADF80A00ADF80C009A
:10149000ADF810000C20ADF80E0001A9114800F0C5
:1014A00095F801210F4800F028F840210D4800F080
:1014B0001BF8012240F225510A4800F061F825206E
:1014C0008DF8000003208DF801008DF80200012046
:1014D0008DF803006846FFF763FB06B010BD0000FF
:1014E000000801400038014001F40072B2F5007FAD
:1014F00000D100BFCA430280704721B1828942F403
:101500000052828104E082894DF6FF731A40828185
:10151000704702460020B1F5007F00D100BF13885C
:101520000B400BB1012000E00020704770B502466F
:10153000002400230025002040F66A16B14200D1A5
:1015400000BFC1F3421501F01F03012606FA03F3A1
:10155000012D02D19689334006E0022D02D1168A70
:10156000334001E0968A33400C12012606FA04F457
:101570001688344013B10CB1012000E0002070BD8A
:10158000F0B50346002400260025002040F66A1727
:10159000B94200D100BF1846C1F3421401F01F0642
:1015A000012707FA06F5012C01D10C3004E0022CCA
:1015B00001D1103000E014301AB107682F430760E2
:1015C00002E00768AF430760F0BD00002DE9F04777
:1015D00086B005460E460024A24600BFA14600275D
:1015E000B08900B100BF2F462C8A4CF6FF70044032
:1015F000F08804432C82AC894EF6F3100440B08886
:1016000031890843718908430443AC81AC8A4FF6A1
:10161000FF400440B0890443AC8201A8FFF7C0FC3E
:101620001F48874202D1DDF810A001E0DDF80CA0D0
:10163000A88900F4004040B10AEBCA0000EB0A1090
:1016400031684900B0FBF1F807E00AEBCA0000EB93
:101650000A1031688900B0FBF1F86420B8FBF0F0A3
:1016600004012009642101FB1089A88900F40040CD
:1016700040B1322000EBC900B0FBF1F000F00700F0
:10168000044308E0322000EB09106421B0FBF1F0C4
:1016900000F00F0004432C8106B0BDE8F087000085
:1016A0000038014001468888C0F308007047C1F344
:1016B00008028280704700BFFEE7000010B50446B4
:1016C000012C01D12849087027480078012832D11F
:1016D0002648006801280ED02448001D0068012813
:1016E00009D0224824380068012804D01F4828382F
:1016F000006801281FD10A2000F0CAFC00201A4906
:1017000008701A480068012800D110BD1748001D54
:101710000068012801D10220F7E714482438006846
:10172000012801D10320F0E710482838006801287B
:1017300017D10420E9E70D480068012811D00B48B3
:10174000001D006801280CD00848243800680128D2
:1017500007D0064828380068012802D00120024935
:1017600008700020D1E700004800002028812142B5
:1017700008B501210820FFF703FC40F60340ADF84F
:10178000000028208DF8030003208DF80200694630
:101790000148FFF7EAF808BD000C01400FB4054B03
:1017A00010B503A9044A029800F0DAF810BC5DF8FD
:1017B00014FB000019210008C800002002E008C83E
:1017C000121F08C1002AFAD170477047002001E0BB
:1017D00001C1121F002AFBD1704700002DE9FF5FF5
:1017E00082B00021DDE90430020DDDF840B0034392
:1017F00018D044F61050A2F2FF324243151411984B
:1018000001281FD0A5EB0B00401C5FEA000A4FF037
:1018100000064E4FDFF83891B046504615D5CAF154
:10182000000413E0119801244AA3012801D16FEAB2
:101830000B010298119AC0E90031C0E9024206B0DA
:10184000BDE8F09FCBF10000DFE704460021404AED
:10185000491842EB0450CDE9001012E0E00707D030
:1018600032463B4640464946FEF744FF804689469D
:1018700032463B4610461946FEF73CFF06460F46E9
:101880006410002CEAD1DDE90401DDE90023BAF19E
:10189000000F06DAFEF72EFF42464B46FEF72AFF00
:1018A00005E0FEF799FF42464B46FEF795FF0446DA
:1018B0000E460022284BFEF7A1FD03D84FF0FF3063
:1018C000014607E00022254B20463146FEF7DCFCAE
:1018D000FEF7F1FF102409E0002C0ADB0A220023A6
:1018E000FEF7D6FD039B30321A55641E50EA010202
:1018F000F2D1641C039AC4F111031444119A012A11
:1019000003D0012208430DD10AE0084304D000208F
:101910004FF0110B119072E7A3EB0B056D1E0DE05C
:101920005B4504DD4FF0000205F1010504E003DA38
:101930004FF00002A5F10105002AECD002981199A0
:10194000C0E90231C0E9004579E700000000144019
:101950000000F03F300000000000F0430000E03FD6
:101960002DE9FF4F95B09B468946064600250FE2BC
:10197000252877D100242746F84A0121059400E064
:10198000044316F8013F203B01FA03F01042F7D15F
:1019900030782A2811D06FF02F033078A0F1300270
:1019A000092A16D8059A44F0020402EB820203EBDE
:1019B00042021044761C0590EFE759F8042B05927B
:1019C000002A03DA504244F40054059044F0020423
:1019D000761C30782E2816D116F8010F44F0040436
:1019E0002A280DD06FF02F023078A0F13003092B98
:1019F00009D807EB870302EB4303C718761CF3E70C
:101A000059F8047B761C30786C280FD006DC4C2803
:101A100017D068280DD06A2814D104E0742810D09B
:101A20007A280FD10DE044F400140AE044F4801445
:101A300001E044F440147278824202D104F580142B
:101A4000761C761C307866280BD013DC582877D0AB
:101A500009DC002875D04528F6D04628F4D0472860
:101A60001AD19DE118E0632835D0642879D0652823
:101A700012D195E1702873D008DC6728F1D069286D
:101A80006FD06E280DD06F2806D1B5E073282CD00A
:101A9000752875D0782874D05A46179990476D1CD0
:101AA00075E1C4F30250022809D003280DD0D9F8FB
:101AB000001004280DD00D6009F1040967E1D9F880
:101AC0000010EA17C1E90052F6E7D9F800100D80BE
:101AD000F2E70D70F0E719F8041B8DF800100020F4
:101AE0008DF80100EA46012003E059F804AB4FF0FD
:101AF000FF3061074FF0000102D40DE008F1010151
:101B00008846B9420FDA8045F8DB1AF80810002938
:101B1000F4D108E008F1010188468142FADB1AF8A5
:101B200008100029F6D105985B46A0EB080721466E
:101B30003846179A00F094FA284400EB080507E0AD
:101B40004DE029E10DE01AF8010B5A46179990472C
:101B5000B8F10108F7D25B4621463846179A13E1DF
:101B600042E00A220092C4F302524FF0000A022A15
:101B700008D059F804CB032A4FEAEC710AD00DE0E3
:101B800029E02AE009F1070121F00702F2E802C189
:101B9000914609E00FFA8CFC4FEAEC71042A03D15C
:101BA0004FFA8CFC4FEAEC71002907DA0A46002153
:101BB000DCF1000C61EB02012D2202E0220504D5CC
:101BC0002B228DF80420012203E0E20701D020221D
:101BD000F7E7904659E00A2102E010220DE01021BB
:101BE0004FF0000A00910BE010224FF0000A44F081
:101BF00004040827009203E008224FF0000A009234
:101C0000C4F30252022A05D059F804CB0021032A5A
:101C100008D009E009F1070121F00702F2E802C14A
:101C2000914605E01FFA8CFC042A01D10CF0FF0C50
:101C30004FF00008220728D5702806D0009B83F0BB
:101C4000100353EA0A0305D00EE040228DF8042069
:101C5000012208E05CEA010206D030228DF804205F
:101C60008DF8050002229046009B83F0080353EA9A
:101C70000A030AD15CEA010201D1620705D53022CC
:101C80008DF804204FF001087F1E582804D034A09E
:101C900003900EA802900DE036A0F9E75346604687
:101CA000009AFEF7F5FB84460398825C0298401E7A
:101CB000029002705CEA0100F0D1029806A9081AAD
:101CC00000F1200A600702D524F4803400E00127E7
:101CD000574502DDA7EB0A0000E0002000EB0A01F7
:101CE000009005984144401A0590E00306D45B46F5
:101CF0002146179A059800F0B3F90544002706E03D
:101D000001A85A46C05D179990476D1C7F1C474536
:101D1000F6DBE0030CD55B462146179A059800F0E8
:101D20009FF9054404E030205A46179990476D1CEE
:101D30000099481E00900029F5DC08E002980299FD
:101D40005A460078491C0291179990476D1CBAF1C8
:101D50000001AAF1010AF1DC65E100000928010097
:101D60003031323334353637383961626364656611
:101D700000000000303132333435363738394142D3
:101D8000434445460000000000F058F90544761C25
:101D9000307800287FF4ECAD19B02846BDE8F08F0C
:101DA000620700D4062709F1070222F0070CFCE8BD
:101DB0000223E14603F000485FEA080C02D00FF26C
:101DC000702C0DE05FEA045C02D50FF2682C07E08E
:101DD0005FEAC47C02D00FF2602C01E0AFF2700C1D
:101DE0004FF0FF3823F00043CDF850C065280CD0E9
:101DF00006DC452809D046281DD047283DD13DE0C6
:101E0000662818D067287ED138E00021112F01DB29
:101E1000112000E0781CCDE9000106A90EA8FFF70B
:101E2000DDFCDDE90F010E9A03910021009207F11C
:101E3000010A04914DE04FF000400097CDE90110F8
:101E400006A90EA8FFF7CAFCDDE90F0203920E9B5C
:101E500011990022DDF80CA00093049211B9791CAD
:101E600000EB010AB7EB0A0004D4C0F1FF3007F120
:101E7000010A0490AAEB0700019044E0012F00DA68
:101E800001270021112F01DD112000E03846CDE9A6
:101E9000000106A90EA8FFF7A1FCDDE90F010E9ACB
:101EA0000391002104910092BA4621070CD40399B2
:101EB000514500DA8A46BAF1010F05DD009AAAF110
:101EC0000101515C302908D0B84202DA10F1040F48
:101ED00006DA0121CDE9011015E0AAF10101E9E7D7
:101EE000002805DC049901440491AAEB000102E0FA
:101EF000411C514500DD8A460499401A401C01905E
:101F00004FF000400290200704D40198504501DBB7
:101F1000CDF8048000208DF84F0002980DF14F0796
:101F2000B0F1004F25D02B200E9002984FF0020800
:101F300000280CDA404202902D200E9007E00A2182
:101F40000298FEF78FFA3031029007F8011DB8F1C0
:101F50000001A8F10108F2DC02980028EFD1791EF7
:101F60000E980870307800F0200040F0450007F827
:101F7000020D12A8C01B00F107081498007800B1E8
:101F8000012000EB0A01019801EBE0710598414442
:101F9000401A401E0590E00306D45B462146179A7E
:101FA000059800F05DF805441498007818B15A4679
:101FB000179990476D1CE00324D55B462146179A7C
:101FC000059800F04DF805441CE00498002807DB54
:101FD000DDE90301884203DD0098405C179901E0C8
:101FE000179930205A469047049805F10105401C86
:101FF00004900198401E019004D12E205A46179952
:1020000090476D1CBAF10001AAF1010ADDDC05E080
:1020100017F8010B5A46179990476D1CB8F100014B
:10202000A8F10108F4DC5B462146179A0598ABE657
:102030002D0000002B000000200000002DE9F041E1
:10204000044600251E461746880404D405E0394698
:102050002020B0476D1C641EF9D52846BDE8F081EC
:102060002DE9F041044600251E469046C80301D5DF
:10207000302700E02027880404D505E04146384693
:10208000B0476D1C641EF9D52846BDE8F0810000FC
:1020900070B5044601F006FF012810D00B480088F7
:1020A000844206D309480088B4FBF0F5284601F0C5
:1020B00023F806480088B4FBF0F100FB11444FF40C
:1020C0007A7104FB01F000F003F870BD58000020A5
:1020D00070B5034600224FF0E02675690D4E367844
:1020E00003FB06F44FF0E026B16910E04FF0E02664
:1020F000B06988420BD0884202D20E1A324402E004
:102100002E1A0E4432440146A24200D300E0EDE70D
:1021100000BF70BD5600002070B504460D46E1B208
:102120000548FFF7C4FA00BF80210348FFF7F1F923
:102130000028F9D0204670BD003801400024012558
:10214000BFE00020FFF7BAFA0446012C0DD15DA0D4
:10215000FFF724FB5D48006801F028FAFEF7D4FC85
:102160005A48006801F05CF9A8E0022C35D158A06B
:10217000FFF714FB00215848006801F039FD0546BF
:10218000012DF1D15548007820B101280AD002284C
:1021900016D108E00220514908704C48006801F04F
:1021A00005FA11E010E04E48C088401C182190FB51
:1021B000F1F201FB12004A49C880FEF7C9FC03E0B6
:1021C00000204649087000BF00BF00231A46194688
:1021D0004148006801F03AFC70E0032C35D141A081
:1021E000FFF7DCFA00213C48006801F001FD0546DC
:1021F000012D63D13948007820B101280AD0022886
:1022000016D108E00220354908703048006801F016
:10221000CDF911E010E032480089401C3C2190FBD0
:10222000F1F201FB12002E490881FEF791FC03E058
:1022300000202A49087000BF00BF00231A46194633
:102240002548006801F002FC38E0042C36D127A0B4
:10225000FFF7A4FA00212048006801F0C9FC0546F8
:10226000012D2BD11D48007820B101280FD0022864
:102270000CD10DE00120194908701448006801F0E4
:1022800095F91C48006801F0CBF80FE000BF00BFD3
:102290000020124908701748006801F087F9FEF71E
:1022A00033FC0A48006801F0BBF800BF00BF002300
:1022B0001A4619460848006801F0C8FB642000F07F
:1022C0001BFF3EE74B455930000000000C0000208A
:1022D0004B455931000000001C0000201400002074
:1022E0004A0000204B455932000000004B4559334D
:1022F00000000000100000201CB54820FEF7FAFF87
:102300004FF44070FEF784FC4FF41650FFF794F83A
:10231000FFF72EFA0648012100238022CDE90010A4
:1023200004A1074801F08EFD01F0EAF800201CBD71
:102330000000002073746172745F7461736B00003D
:10234000D12D0008FEF7A5FBFEF702FD26A2012114
:102350000846FEF7CBFD27A201210220FEF7C6FDAD
:1023600028A201210320FEF7C1FD2AA20121042099
:10237000FEF7BCFD36E0FEF7C7FB284802880423C1
:1023800006210220FEF790FD2448428802230B21FB
:102390001846FEF789FD2148828802230E2118463F
:1023A000FEF782FD1D48C288022306210320FEF7A6
:1023B0007BFD1A480289022309210320FEF774FDE0
:1023C0001648428902230C210320FEF76DFD0223EB
:1023D0001348027806210420FEF766FD4FF47A7058
:1023E00000F08AFEC7E70000506574616C20436C02
:1023F0006F636B00446174653A787878782D7878EB
:102400002D78780054696D653A78783A78783A781A
:10241000780000006D6F64653A0000004A000020FB
:10242000140000202DE9F04105460E4626480768B5
:1024300026480068001D00F02FFD50B923480068B1
:1024400090F82C10012088402149096881432048D8
:102450000160681CD8B9D6B11E4948681B49096893
:1024600088601A4982680968CA6018490968091DA4
:102470008268516015490968091D8160154A134930
:1024800009684A6111460968491C11601AE07C1903
:102490000E4800684460BC4207D20C480168091D20
:1024A0000D48006800F01CFD0CE008480168091D9B
:1024B0000A48006800F014FD09480068844201D20F
:1024C00007480460BDE8F081700000205C00002037
:1024D00074000020640400206400002060000020DC
:1024E0008C00002010B5044600F020FD2F48006845
:1024F000401C2E4908602E48006840B92C480460F2
:102500000846006801280DD100F0BCF90AE029480E
:10251000006838B926480068C06AE16A884201D874
:102520002348046024480068401C2349086094F84C
:102530002C10012088402149096808431F49086080
:10254000E16A01EB81011E4A02EB81014868A0604B
:102550008268E260211D826851608160E16A01EB5E
:102560008101174A02EB81026261E16A01EB81019C
:10257000134A52F82110491CE26A02EB8202104B06
:1025800043F8221000F014FD0A48006868B10848BA
:102590000068C06AE16A884207D24FF0805009495A
:1025A0000860BFF34F8FBFF36F8F10BD6C0000202A
:1025B0005C000020780000208800002074000020CB
:1025C0009401002004ED00E010B516E000F0AEFC30
:1025D0000C48C068C468201D00F05EFC0A48006812
:1025E000401E0949086009480068401E0749086004
:1025F00000F0DEFC204600F04AF80448006800289D
:10260000E4D110BD500400206C00002068000020C0
:102610002DE9F04104460F4615464FF00008A66B21
:10262000206C48B9206800282CD1A06801F034FD46
:1026300080460020A06025E07DB93946226C6068A4
:10264000FDF710FE216C606808446060D4E9010168
:10265000884217D32068606014E03946226CE06835
:10266000FDF700FE216CE068411AE1602168E06836
:10267000884203D2216CA068411AE160022D01D189
:1026800006B1761E701CA0634046BDE8F08110B50F
:102690000446206B00F0C2FC204600F0BFFC10BDD9
:1026A00001464A6A22B10A6B1268C2F1200000E0BA
:1026B0000020704730B54FF42053174800F007044E
:1026C0002CB1C01D20F00700134C041B1B1B02463D
:1026D000124C22600024114D6C60D018083820F094
:1026E00007000F4C206000240D4D2D686C600C4DD0
:1026F0002D682C601146441A4C60094C24680C600B
:10270000084D4C682C60084D4C682C604FF000441C
:10271000064D2C6030BD0000780400209C00002095
:10272000A4000020AC000020A8000020B800002079
:1027300000BFFFF749FF064800680128F9D94FF0AC
:10274000805004490860BFF34F8FBFF36F8FF0E7ED
:102750009401002004ED00E010B5044654B10020BF
:10276000A06020600021E16000231A46194620463F
:1027700001F06CF910BD2DE9F04106460D461746F3
:102780009846069C0DB9246000E02760E663256446
:102790000121204601F0E4F8BDE8F0812DE9FF5F5A
:1027A00081460F469246DDE90E6B109CAAF10100AE
:1027B000216B01EB800828F0070808F0070008B932
:1027C000012000E0002028B940F2613224A129A0B4
:1027D000FEF7E4FF87B1002507E0795D04F13400DE
:1027E0004155785D00B902E06D1C102DF5D300BF96
:1027F00000214320015502E0002084F83400202EFF
:1028000001D2012000E0002028B94FF4667214A123
:1028100018A0FEF7C3FF202E00D31F26E6626664D1
:102820000020A064201D00F058FB04F1180000F007
:1028300054FB2461C6F12000A06164620020E064C2
:1028400084F8500049464046039A00F035FA20606B
:10285000BBF1000F01D0CBF80040BDE8FF9F0000A6
:102860004672656552544F535C7461736B732E638B
:10287000000000004572726F723A25732C25640DBA
:102880000A00000010B5002407E004EB84010F4AA1
:1028900002EB810000F014FB641C202CF5D30C48E3
:1028A00000F00EFB0B4800F00BFB0B4800F008FBA0
:1028B0000A4800F005FB0A4800F002FB04480949F9
:1028C000086004480849086010BD00009401002019
:1028D00014040020280400203C04002050040020A0
:1028E00064040020600000206400002010B5014650
:1028F000164800E0006803688B42FBD30246436839
:1029000013448B4204D143684C682344436001461E
:102910000A464B6813440468A34211D10C4C036867
:102920002468A34208D04B680468646823444B6061
:1029300003681B680B6005E0054B1B680B6001E03A
:1029400003680B60884200D0016010BD9C0000202D
:10295000A400002070B5054600F0E8FAA86B08B99D
:10296000012400E0002400F023FB204670BD70B578
:10297000054600F0DBFAA86BE96B884201D101241F
:1029800000E0002400F014FB204670BD09480068F8
:10299000006808B9012000E0002020B14FF0FF30AE
:1029A0000549086005E003480068C06800680249FE
:1029B00008607047600000208C0000200B48006811
:1029C000401C08B9012000E0002020B9CE2208A157
:1029D00011A0FEF7E3FE00BF502080F31188BFF383
:1029E0004F8FBFF36F8F00BF00BFFEE7BC0000201A
:1029F0004672656552544F535C706F727461626CBD
:102A0000655C525644535C41524D5F434D335C709C
:102A10006F72742E630000004572726F723A2573F4
:102A20002C25640D0A00000070B5054600262C46D2
:102A30002DB94FF4E5620EA112A0FEF7AFFE1549C5
:102A40006069884201D1012000E0002070B1124984
:102A5000A06A884201D1012000E0002030B9A06ABC
:102A600008B9012000E0002000B10126304670BD09
:102A70004672656552544F535C7461736B732E6379
:102A8000000000004572726F723A25732C25640DA8
:102A90000A000000640400203C04002070B50446D5
:102AA00000F044FA94F9455010E0606A08B901203A
:102AB00000E0002038B904F1240001F0E3FB18B174
:102AC00000F0EAFB00E003E0681E45B2002DECDCFC
:102AD00000BFFF2084F8450000F06AFA00F026FAF3
:102AE00094F9445010E0206908B9012000E000206A
:102AF00048B904F1100001F0C5FB08B100F0CCFBAF
:102B0000681E45B200E001E0002DECDC00BFFF20B4
:102B100084F8440000F04CFA70BD00002DE9F0414B
:102B200004464FF0000800F0CFFD4848006808B99F
:102B3000FFF7C0FD464800682040002873D114B359
:102B400004F10800A0421ED9083404F00700D8B1EF
:102B500004F00700C0F108002044A04211D904F09D
:102B60000700C0F10800044404F0070008B9012080
:102B700000E0002040B99C2236A13FA0FEF70EFEE7
:102B800002E0002400E00024002C4CD03E48006805
:102B9000844248D83D4E3046056801E02E462D68F7
:102BA0006868A04202D228680028F7D12748006848
:102BB000854238D0306800F10808286830606868BD
:102BC000001B102813D92F1907F0070008B901209E
:102BD00000E0002020B9CF221EA127A0FEF7DEFDD5
:102BE0006868001B78606C603846FFF77FFE2649F6
:102BF00068680968081A244908600846006824497A
:102C00000968884203D220480068214908601049B9
:102C10006868096808436860002028601D480068EB
:102C2000401C1C49086001F0CBFB08F0070008B904
:102C3000012000E0002028B94FF4887205A10EA001
:102C4000FEF7ACFD4046BDE8F0810000A400002086
:102C5000B80000204672656552544F535C706F7225
:102C60007461626C655C4D656D4D616E675C686535
:102C700061705F342E6300004572726F723A257383
:102C80002C25640D0A000000A80000209C000020F4
:102C9000AC000020B00000200648006830B10549B3
:102CA000096801F14800896C491C0160014800680D
:102CB000704700005C000020001F4FF0807303602D
:102CC000001F21F001030360001F034B0360143851
:102CD0000260203870470000BD29000827E0144832
:102CE00000F00AFA13480068FDF775FB0646124A21
:102CF000124BFDF7C9FA0446FDF798FB0D49086031
:102D000008460068FDF767FB044600220C4BFDF700
:102D100075FB02D800200749086006480068FDF7E7
:102D20005AFB044622460B4606A0FEF737FDD6E7BF
:102D3000C04B030018000020CDCCCCCCCCCCFC3F49
:102D4000008076403132616E676C653A252E3166BF
:102D50000D0A0000002000F029FC28E04FF49670D6
:102D600000F0CAF912480068FDF735FB0646114A23
:102D7000114BFDF789FA0446FDF758FB0C49086032
:102D800008460068FDF727FB044600220B4BFDF7C1
:102D900035FB02D800200649086005480068FDF7A9
:102DA0001AFB044622460B4605A0FEF7F7FCD5E7C2
:102DB00018000020CDCCCCCCCCCCFC3F00807640A1
:102DC0003630616E676C653A252E31660D0A00005B
:102DD0001CB5044600F0AAF8012000F06FFD184968
:102DE00008601848022100238022CDE9001016A1B6
:102DF000184801F027F81848012100238022CDE966
:102E0000001016A1184801F01DF8184803210023EE
:102E10008022CDE9001016A1184801F013F81848D7
:102E2000032100238022CDE9001016A1184801F0EB
:102E300009F81848006800F099F900F0B9F81CBDCD
:102E40001C000020040000206F6C65645F746173D7
:102E50006B00000045230008080000206B65795FC7
:102E60007461736B000000003D2100080C0000201D
:102E700072756E3132685F7461736B00DD2C00080F
:102E80001000002072756E3630735F7461736B00D2
:102E9000552D00080000002001460A69D1E90130E3
:102EA0009860D1E9010358605068884201D1886870
:102EB0005060002008611068401E10601068704764
:102EC00000F1080141604FF0FF31816000F108011D
:102ED000C1600161002101607047002101617047FC
:102EE00010B502460B685C1C0CB9106907E002F1D2
:102EF000080000E04068446824689C42FAD94468AD
:102F00004C604C68A160886041600A611468641C70
:102F1000146010BD42684A6093688B609368596082
:102F20009160086103685B1C0360704710B500BFC7
:102F3000502080F31188BFF34F8FBFF36F8F00BF16
:102F40000B480068401C0A490860084600680128D0
:102F50000DD108480068C0B208B9012000E0002087
:102F600028B940F2731204A10DA0FEF717FC10BDA2
:102F7000BC00002004ED00E04672656552544F53DA
:102F80005C706F727461626C655C525644535C4154
:102F9000524D5F434D335C706F72742E63000000BE
:102FA0004572726F723A25732C25640D0A00000079
:102FB00010B50B48006828B94FF4BD7209A113A0E1
:102FC000FEF7ECFB06480068401E0549086008460D
:102FD000006820B9002080F3118800BF00BF10BD39
:102FE000BC0000204672656552544F535C706F728E
:102FF0007461626C655C525644535C41524D5F4350
:103000004D335C706F72742E630000004572726FF6
:10301000723A25732C25640D0A00000070B506462F
:103020003546002E3AD0083D2C461D496068096897
:10303000084008B1012000E0002028B94FF4927246
:1030400018A121A0FEF7AAFB206808B9012000E022
:10305000002028B940F2251212A11BA0FEF79EFB0A
:103060000F49606809680840C0B12068B0B90C49D0
:10307000606809688843606000F026FB1649606854
:1030800009680844144908602046FFF72FFC1348DC
:103090000068401C1149086001F092F970BD000001
:1030A000B80000204672656552544F535C706F72D1
:1030B0007461626C655C4D656D4D616E675C6865E1
:1030C00061705F342E6300004572726F723A25732F
:1030D0002C25640D0A000000A8000020B400002088
:1030E00000204FF0E0210861886102484861072014
:1030F000086170473F19010070B504460025ACB166
:103100000F48006808B9012000E0002028B940F20B
:103110004A520CA110A0FEF741FB00F0D5FA0021A5
:103120002046FFF77FF901F04BF905463DB94FF016
:1031300080500D490860BFF34F8FBFF36F8F70BD94
:10314000980000204672656552544F535C74617359
:103150006B732E63000000004572726F723A257324
:103160002C25640D0A00000004ED00E070B5054652
:10317000FFF7DCFE15B92F48006800E0284604463A
:10318000201DFFF789FE78B9E06A00EB80002A492C
:1031900051F8200040B994F82C10012088402749AC
:1031A0000968814325480160A06A18B104F118003C
:1031B000FFF772FE22480068401C214908601D4844
:1031C0000068844209D1211D1E48FFF7A3FE1E4856
:1031D0000068401C1C49086006E01C480068401E4E
:1031E0001A490860FFF7D2FBFFF7E2FE11480068BA
:1031F000844202D02046FFF74AFA15480068C0B161
:103200000C480068844214D11248006808B90120B3
:1032100000E0002028B940F2DD420FA113A0FEF724
:10322000BDFA4FF0805015490860BFF34F8FBFF3D0
:103230006F8F70BD5C00002094010020740000209E
:103240008800002050040020680000206C0000204E
:1032500078000020980000204672656552544F5354
:103260005C7461736B732E63000000004572726FB3
:10327000723A25732C25640D0A00000004ED00E06D
:10328000034909680160034909684160704700000B
:103290008400002070000020012001490860704770
:1032A0008000002070B504460D462CB940F61D4242
:1032B00007A10CA0FEF772FA0E48016818312046EB
:1032C000FFF70EFE01212846FFF7ACF870BD0000A5
:1032D0004672656552544F535C7461736B732E6311
:1032E000000000004572726F723A25732C25640D40
:1032F0000A0000005C0000202DE9F04706460F465A
:1033000034464FF00109002E70D0A06C28B94FF45C
:10331000855237A13BA0FEF741FA606CB84201D25A
:103320003D4600E0656CE06AA8425FD0A06C0128D1
:103330005CD138480068844201D0012000E00020C0
:1033400028B941F2BB022AA12EA0FEF727FAD4F831
:103350002C80E562A06900F0004010B9C5F12000A2
:10336000A06108EB88012C4A02EB81016069884268
:1033700001D1012000E00020C0B3201DFFF78CFD2B
:1033800040B994F82C1001208840244909688143F1
:103390002248016094F82C10012088401F490968D8
:1033A00008431E490860E16A01EB81011A4A02EBF9
:1033B00081014868A0608268E260211D82685160D6
:1033C0008160E16A01EB8101134A02EB81026261D3
:1033D000E16A01EB8101104A52F82110491CE26AAE
:1033E00002EB82020C4B43F8221000BFBDE8F087CD
:1033F0004672656552544F535C7461736B732E63F0
:10340000000000004572726F723A25732C25640D1E
:103410000A0000005C0000209401002074000020DD
:1034200070B505462C462DB940F2527227A12CA04A
:10343000FEF7B4F92E480068844245D0002C43D0F2
:10344000FFF774FD2046FFF7EFFAD8B3201DFFF712
:1034500023FD94F82C100120884026490968084370
:1034600024490860E16A01EB8101234A02EB8101F2
:103470004868A0608268E260211D826851608160B6
:10348000E16A01EB81011C4A02EB81026261E16A9F
:1034900001EB8101184A52F82110491CE26A02EB43
:1034A0008202154B43F822101149E06A0968C96A83
:1034B000884207D34FF0805010490860BFF34F8F08
:1034C000BFF36F8FFFF774FD70BD00004672656536
:1034D00052544F535C7461736B732E630000000091
:1034E0004572726F723A25732C25640D0A00000034
:1034F0005C000020740000209401002004ED00E036
:103500001CB5194800210B468022CDE9001017A1F7
:10351000184800F097FC0446012C15D100BF50203C
:1035200080F31188BFF34F8FBFF36F8F00BF4FF051
:10353000FF3011490860012010490860002010493F
:10354000086000F01DF90BE0601C08B1012000E0EC
:10355000002028B940F641020AA10FA0FEF71EF98B
:10356000114800681CBD00009000002049444C45F3
:1035700000000000312700088C00002078000020A7
:10358000700000204672656552544F535C7461733D
:103590006B732E63000000004572726F723A2573E0
:1035A0002C25640D0A0000009400002070B505462B
:1035B000FFF7BCFC15B93348006800E02846044614
:1035C000201DFFF769FC78B9E06A00EB80002E4906
:1035D00051F8200040B994F82C10012088402B4964
:1035E0000968814329480160A06A18B104F11800F4
:1035F000FFF752FC211D2648FFF78CFC002009E054
:1036000004F15001095C012903D1002204F15001A9
:103610000A54401C0128F3DBFFF7CAFC1D48006870
:1036200028B1FFF783FCFFF7B1F9FFF7C1FC15489C
:103630000068844224D117480068A8B11648006881
:1036400008B9012000E0002028B940F2FE6213A171
:1036500017A0FEF7A3F84FF0805019490860BFF398
:103660004F8FBFF36F8F0BE0094800681549096859
:10367000884203D100200349086001E000F02CF8E3
:1036800070BD00005C000020940100207400002048
:1036900064040020780000209800002046726565D0
:1036A00052544F535C7461736B732E6300000000BF
:1036B0004572726F723A25732C25640D0A00000062
:1036C00004ED00E06C00002002480068401C014945
:1036D000086070479800002010B51B48006818B1BA
:1036E00001201A4908602DE0002018490860184898
:1036F0000068B0FA80F0C0F11F0404EB84001549A3
:1037000051F8200008B1012000E0002028B940F65F
:10371000034211A115A0FEF741F804EB84010D4A04
:1037200002EB810041684968416000F1080142688C
:103730008A4202D14168496841604168C9680F4ABC
:10374000116000BF10BD0000980000208000002024
:1037500074000020940100204672656552544F5356
:103760005C7461736B732E63000000004572726FAE
:10377000723A25732C25640D0A0000005C000020BD
:103780001CB53B4C204600780190FF202146087074
:103790000846007800909DF8000000F0F0009DF8C9
:1037A0000010884201D1012000E0002028B940F239
:1037B0001F1230A139A0FDF7F1FF9DF8000000F0C5
:1037C00050003A49087007203949086009E0384834
:1037D0000068401E364908609DF800004006000E53
:1037E00000909DF8000000F080008028EFD0304865
:1037F0000068C0F10700042801D1012000E000208A
:1038000028B940F233121BA124A0FDF7C7FF2848B6
:103810000068C0F10700042801D1012000E0002069
:1038200028B94FF49E7213A11CA0FDF7B7FF2048E2
:10383000006800021E4908600846008800F4E06045
:1038400008600B49019808701A48006840F470003D
:10385000184908600846006840F070400860FFF7AB
:103860003FFC002014490860FCF75CFC00201CBDF4
:1038700000E400E04672656552544F535C706F720D
:103880007461626C655C525644535C41524D5F43B7
:103890004D335C706F72742E630000004572726F5E
:1038A000723A25732C25640D0A000000C000002028
:1038B000C400002020ED00E0BC0000202DE9F04114
:1038C00004460126002722460021012000F008F8C6
:1038D00005462846FEF740FF2846BDE8F081000077
:1038E0002DE9F84305460E4617460024E5B1601E53
:1038F000B0FBF5F0B04217D305FB06F010F1490F0D
:1039000012D805FB06F909F14800FFF707F904464C
:103910008CB1A04608F148083B464246314628464D
:103920000094FEF728FF06E02CB94FF4E37203A1E0
:1039300007A0FDF733FF2046BDE8F88346726565B2
:1039400052544F535C71756575652E63000000001D
:103950004572726F723A25732C25640D0A000000BF
:103960002DE9F04105460E4601272C462CB94FF4AF
:1039700088722CA130A0FDF711FF002C42D0E06B23
:1039800000283FD04FF0FF31E06BB1FBF0F0216C2D
:10399000884237D3FFF7CAFAD4E90F12206801FB37
:1039A0000200A0600020A06320686060E06B401E01
:1039B000226C216800FB0211E160FF2084F84400C2
:1039C00084F845009EB9206908B9012000E0002074
:1039D000A8B904F1100000F055FC80B14FF0805000
:1039E00019490860BFF34F8FBFF36F8F07E004F1F1
:1039F0001000FFF765FA04F12400FFF761FAFFF702
:103A0000D7FA00E000270FB1012000E0002028B91C
:103A100040F2451203A108A0FDF7C0FE3846BDE8FC
:103A2000F08100004672656552544F535C717565B4
:103A300075652E63000000004572726F723A25733F
:103A40002C25640D0A00000004ED00E02DE9FF4381
:103A500083B0064688461D464FF0000934462CB90F
:103A600040F22E3258A15DA0FDF798FEB8F1000F8C
:103A700001D1206C08B9012000E0002028B940F2F3
:103A80002F3251A155A0FDF789FE022D02D1E06B26
:103A9000012801D1012000E0002028B94FF44C7228
:103AA00049A14EA0FDF77AFE00F0FCF908B905988F
:103AB00008B9012000E0002028B940F2333242A1C9
:103AC00046A0FDF76BFE00BFFFF730FAA06BE16B7D
:103AD000884201D3022D28D12A4641462046FEF7CE
:103AE00097FD0746606A08B9012000E0002068B928
:103AF00004F1240000F0C6FB88B14FF080503B4930
:103B00000860BFF34F8FBFF36F8F08E03FB14FF0F6
:103B1000805036490860BFF34F8FBFF36F8FFFF7B8
:103B200047FA012007B0BDE8F083059818B9FFF700
:103B30003FFA0020F6E7B9F1000F04D101A8FFF722
:103B40009FFB4FF00109FFF733FAFFF7BDFDFFF7C9
:103B5000EDF994F94400401C10B9002084F84400A9
:103B600094F94500401C10B9002084F84500FFF787
:103B70001FFA05A901A800F015F9F0B92046FEF7D3
:103B8000F6FEA0B104F110000599FFF78BFB20466B
:103B9000FEF784FF00F014FC002895D14FF0805010
:103BA00012490860BFF34F8FBFF36F8F8CE7204639
:103BB000FEF774FF00F004FC86E72046FEF76EFF78
:103BC00000F0FEFB0020ADE74672656552544F538E
:103BD0005C71756575652E63000000004572726F3B
:103BE000723A25732C25640D0A00000004ED00E0F4
:103BF0002DE9F34182B005464FF000082C4600261F
:103C00002CB940F2E3525DA161A0FDF7C7FD206C25
:103C100008B9012000E0002028B940F2E75257A17E
:103C20005BA0FDF7BBFD00F03DF908B9039808B9AA
:103C3000012000E0002028B940F2EC524FA154A02E
:103C4000FDF7ACFD00BFFFF771F9A76BFFB1781E60
:103C5000A063206810B9FFF71FF8A060206908B9B9
:103C6000012000E0002060B904F1100000F00AFB20
:103C700038B14FF080504A490860BFF34F8FBFF30F
:103C80006F8FFFF795F9012004B0BDE8F08103982C
:103C900070B90EB9012000E0002028B940F232626C
:103CA00036A13BA0FDF77AFDFFF782F90020EBE794
:103CB000B8F1000F04D16846FFF7E2FA4FF00108AF
:103CC000FFF776F9FFF700FDFFF730F994F94400AC
:103CD000401C10B9002084F8440094F94500401CB1
:103CE00010B9002084F84500FFF762F903A968467F
:103CF00000F058F840BB2046FEF72CFEF0B12068DB
:103D000038B9FFF713F9A06800F046FA0646FFF746
:103D10004FF904F124000399FFF7C4FA2046FEF797
:103D2000BDFE00F04DFB00288DD14FF080501C49A6
:103D30000860BFF34F8FBFF36F8F84E72046FEF715
:103D4000ADFE00F03DFB7EE72046FEF7A7FE00F04B
:103D500037FB2046FEF7FEFD0028EED05EB1FFF7F0
:103D6000E5F82046FEF79CFC07463946A068FFF7B9
:103D7000C3FAFFF71DF9002086E70000467265656B
:103D800052544F535C71756575652E6300000000D9
:103D90004572726F723A25732C25640D0A0000007B
:103DA00004ED00E070B505460C462DB940F6FE4224
:103DB00019A11EA0FDF7F2FC2CB940F6FF4216A196
:103DC0001AA0FDF7EBFCFFF7B1F81C480368686820
:103DD0001A1A2068401C08B9002619E018492868FA
:103DE0000968884206D06868984203D801260020F6
:103DF00020600DE02068904207D92068801A20607A
:103E00002846FFF73DFA002602E000202060012648
:103E1000FFF7CEF8304670BD4672656552544F5379
:103E20005C7461736B732E63000000004572726FE7
:103E3000723A25732C25640D0A00000070000020E2
:103E4000840000202DE9FF4F85B080468946174643
:103E5000DDE912ABB800FEF761FE064656B154200C
:103E6000FEF75CFE04460CB1266304E03046FFF723
:103E7000D5F800E000247CB10020CDE900ABCDE90D
:103E800002403A4649464046089BFEF787FC2046DA
:103E9000FEF728FB012501E04FF0FF35284609B069
:103EA000BDE8F08F0549096809B9012005E004491A
:103EB000096809B9022000E000207047780000205E
:103EC000980000202DE9F0414FF000085E4800689E
:103ED00000287DD15D480068451C5C480560EDB94F
:103EE0005B480068006808B9012000E0002028B99C
:103EF00040F6C82257A15CA0FDF750FC5448076863
:103F00005D480068524908605B4807605B4800688C
:103F1000401C5A490860FEF739FD00BF5848006848
:103F2000854277D300BF4A480068006808B901207D
:103F300000E0002020B14FF0FF305149086068E0F8
:103F400043480068C068C4686668B54202D24C48FD
:103F500006605EE06069D4E902128A60D4E9022159
:103F60004A60211D42688A4201D1E1684160002215
:103F700062610168491E0160A06A98B1A06AD4E933
:103F800007128A60D4E907214A6004F118014268E7
:103F90008A4201D1216A41600022A2620168491E61
:103FA000016000BF94F82C10012088403549096851
:103FB000084334490860E16A01EB8101324A02EBAF
:103FC00081014868A0608268E260211D826800E08B
:103FD00032E051608160E16A01EB81012A4A02EB23
:103FE00081026261E16A01EB8101274A52F82110E6
:103FF000491CE26A02EB8202234B43F82210234958
:10400000E06A0968C96A88428DD34FF001088AE7DF
:1040100000E000BF1D480068C06A00EB80001A493C
:1040200051F82000012801D94FF001081848006814
:1040300008B14FF0010804E016480068401C15491B
:1040400008604046BDE8F081980000207000002024
:10405000600000204672656552544F535C74617372
:104060006B732E63000000004572726F723A257305
:104070002C25640D0A00000064000020840000204C
:104080008C00002074000020940100205C000020BF
:10409000800000207C00002070B505462C460026DC
:1040A000002D5ED030480068844201D1012000E03C
:1040B000002028B941F250022CA131A0FDF76EFB7F
:1040C000A06C28B941F2510228A12DA0FDF766FB92
:1040D000A06C401EA064616CE06A884241D0A06C74
:1040E00000283ED1201DFEF7D7FE40B994F82C10D1
:1040F0000120884026490968814325480160606C99
:10410000E062E06AC0F12000A06194F82C10012068
:1041100088401F49096808431D490860E16A01EBAE
:1041200081011C4A02EB81014868A0608268E2605C
:10413000211D826851608160E16A01EB8101154AAD
:1041400002EB81026261E16A01EB8101114A52F8DE
:104150002110491CE26A02EB82020E4B43F8221046
:104160000126304670BD00005C0000204672656587
:1041700052544F535C7461736B732E6300000000E4
:104180004572726F723A25732C25640D0A00000087
:10419000740000209401002070B505462C460026CE
:1041A000002D67D03449E06A0968C96A88425AD24A
:1041B000A06900F0004028B92F480068C06AC0F12B
:1041C0002000A061E16A01EB81012C4A02EB810130
:1041D0006069884201D1012000E00020E0B3201D89
:1041E000FEF75AFE40B994F82C100120884024496B
:1041F00009688143224801601F480068C06AE06284
:1042000094F82C10012088401D49096808431C4976
:104210000860E16A01EB8101184A02EB81014868FC
:10422000A0608268E260211D826851608160E16A5D
:1042300001EB8101114A02EB81026261E16A01EB4B
:1042400081010E4A52F82110491CE26A02EB8202F7
:104250000A4B43F8221004E0FFE707480068C06AF1
:10426000E062012606E00449606C0968C96A884278
:1042700000D20126304670BD5C0000209401002071
:104280007400002070B50646F068C4682CB940F68A
:1042900083423CA140A0FDF781FAA06AD4E907124D
:1042A0008A60D4E907214A6004F1180142688A4211
:1042B00001D1216A41600022A2620168491E0160A9
:1042C0003948006800283DD16069D4E902128A604B
:1042D000D4E902214A60211D42688A4201D1E16885
:1042E0004160002262610168491E016094F82C104F
:1042F000012088402D49096808432C490860E16A7B
:1043000001EB81012A4A02EB81014868A0608268C2
:10431000E260211D826851608160E16A01EB8101E8
:10432000234A02EB81026261E16A01EB8101204ACA
:1043300052F82110491CE26A02EB82021C4B43F83E
:10434000221010E01B494868E0618268226204F193
:104350001801826851608160164AA262114609689C
:10436000491C116000BF1449E06A0968C96A8842A3
:1043700004D9012501201149086000E000252846E4
:1043800070BD00004672656552544F535C74617392
:104390006B732E63000000004572726F723A2573D2
:1043A0002C25640D0A0000009800002074000020F5
:1043B000940100203C0400205C00002080000020CC
:1043C00070B5002400265048006828B940F6B402B1
:1043D0004EA153A0FDF7E2F9FEF7A8FD4A48006898
:1043E000401E494908600846006800287ED15048B0
:1043F000006800287AD05BE04E48C068C468A06AB4
:10440000D4E907128A60D4E907214A6004F118014F
:1044100042688A4201D1216A41600022A262016899
:10442000491E01606069D4E902128A60D4E9022160
:104430004A60211D42688A4201D1E1684160002240
:1044400062610168491E016094F82C1001208840C7
:1044500039490968084338490860E16A01EB81017C
:10446000364A02EB81014868A0608268E260211D43
:10447000826851608160E16A01EB81012F4A02EBA1
:1044800081026261E16A01EB81012C4A52F821103C
:10449000491CE26A02EB8202284B43F822102849A9
:1044A000E06A0968C96A884202D301202549086088
:1044B0002048006808B9012000E0002000289BD0B7
:1044C0000CB1FEF763FA2048056865B100BFFFF73D
:1044D000F9FC10B101201B4908606D1E002DF6D1BA
:1044E0000020194908601748006800E008E038B16A
:1044F0000126300715490860BFF34F8FBFF36F8F58
:10450000FEF756FD304670BD980000204672656586
:1045100052544F535C7461736B732E630000000040
:104520004572726F723A25732C25640D0A000000E3
:104530006C0000203C040020740000209401002046
:104540005C000020800000207C00002004ED00E0E2
:10455000000000000000000000000000000000005B
:10456000000000F8000000000000003330000000F0
:1045700000100C06100C06000000000000000000F7
:1045800040C07840C0784000043F04043F04040069
:10459000007088FC08300000001820FF211E000079
:1045A000F008F000E018000000211C031E211E008E
:1045B00000F00888700000001E2123241927211014
:1045C00010160E00000000000000000000000000B7
:1045D000000000E01804020000000007182040005E
:1045E00000020418E000000000402018070000004E
:1045F000404080F0804040000202010F01020200B2
:10460000000000F0000000000101011F0101010095
:10461000000000000000000080B0700000000000FA
:104620000000000000000000000101010101010183
:10463000000000000000000000303000000000001A
:1046400000000000806018040060180601000000EF
:1046500000E010080810E000000F102020100F00EC
:10466000001010F8000000000020203F2020000073
:1046700000700808088870000030282422213000CB
:1046800000300888884830000018202020110E00D3
:104690000000C02010F8000000070424243F24007C
:1046A00000F80888880808000019212020110E0051
:1046B00000E0108888180000000F112020110E0063
:1046C00000380808C83808000000003F000000005B
:1046D0000070880808887000001C222121221C001C
:1046E00000E010080810E0000000312222110F0045
:1046F000000000C0C00000000000003030000000DA
:104700000000008000000000000080600000000049
:104710000000804020100800000102040810200062
:1047200040404040404040000404040404040400AD
:104730000008102040800000002010080402010042
:10474000007048080808F000000000303601000042
:10475000C030C828E810E0000718272423140B00F5
:104760000000C038E0000000203C2302022738206F
:1047700008F8888888700000203F202020110E0053
:10478000C03008080808380007182020201008004A
:1047900008F808080810E000203F202020100F0033
:1047A00008F88888E8081000203F202023201800FF
:1047B00008F88888E8081000203F20000300000067
:1047C000C03008080838000007182020221E020008
:1047D00008F808000008F808203F210101213F20C7
:1047E000000808F8080800000020203F20200000F2
:1047F00000000808F8080800C08080807F000000E2
:1048000008F888C028180800203F2001263820001A
:1048100008F8080000000000203F20202020300081
:1048200008F8F800F8F80800203F003F003F20009B
:1048300008F830C00008F808203F200007183F00A3
:10484000E01008080810E0000F10202020100F00D2
:1048500008F808080808F000203F210101010000C5
:10486000E01008080810E0000F18242438504F000A
:1048700008F8888888887000203F2000030C3020CA
:1048800000708808080838000038202121221C0008
:10489000180808F8080818000000203F2000000051
:1048A00008F808000008F808001F202020201F003A
:1048B0000878880000C83808000007380E0100009A
:1048C000F80800F80008F800033C0700073C030064
:1048D000081868808068180820302C03032C3020CA
:1048E0000838C800C83808000000203F2000000039
:1048F00010080808C8380800203826212020180091
:10490000000000FE020202000000007F4040400064
:10491000000C30C000000000000000010638C0009C
:1049200000020202FE000000004040407F00000044
:104930000000040202020400000000000000000069
:104940000000000000000000808080808080808067
:10495000000202040000000000000000000000004F
:1049600000008080808000000019242222223F2045
:1049700008F8008080000000003F112020110E0088
:104980000000008080800000000E11202020110017
:10499000000000808088F800000E112020103F20C9
:1049A0000000808080800000001F2222222213004D
:1049B000008080F0888888180020203F2020000098
:1049C0000000808080808000006B9494949360004D
:1049D00008F8008080800000203F210000203F2058
:1049E00000809898000000000020203F2020000058
:1049F000000000809898000000C08080807F000048
:104A000008F8000080808000203F24022D30200024
:104A1000000808F8000000000020203F20200000CF
:104A20008080808080808000203F20003F20003FE9
:104A30008080008080800000203F210000203F20F7
:104A40000000808080800000001F202020201F00A8
:104A5000808000808000000080FFA12020110E00D7
:104A60000000008080808000000E112020A0FF80C8
:104A7000808080008080800020203F212000010075
:104A800000008080808080000033242424241900CA
:104A9000008080E0808000000000001F20200000D7
:104AA0008080000000808000001F202020103F2018
:104AB000808080000080808000010E3008060100A8
:104AC00080800080008080800F300C030C300F004D
:104AD00000808000808080000020312E0E31200078
:104AE000808080000080808080818E7018060100A8
:104AF00000808080808080000021302C22213000C6
:104B000000000000807C020200000000003F4040E6
:104B100000000000FF00000000000000FF00000097
:104B20000002027C800000000040403F00000000C6
:104B30000006010102020404000000000000000061
:104B40001F1C1F1E1F1E1F1F1E1F1E1F1F1D1F1E7F
:104B50001F1E1F1F1E1F1E1F784B00080000002075
:104B6000CC000000BC170008444C0008CC0000201A
:104B7000DC2F0000CC17000800000000000000003F
:104B80000000000000000000000000000000000025
:104B9000000000000000000000000000010203040B
:104BA00001020304060708090204060800A24A04D9
:104BB00000000000000000000102030406070809CD
:104BC0000100E807010001000000000000000000F3
:104BD00000000000000000000000000000000000D5
:104BE00000000000000000000000000000000000C5
:104BF00000000000000000000000000000000000B5
:104C00000000000000000000000000001F00000085
:104C10000000000000000000000000000000000094
:104C20000000000000000000000000000000000084
:104C300000000000AAAAAAAA0000000000000000CC
:044C40000000000070
:04000005080000ED02
:00000001FF
